S0140000576174657244726F707065722E7372656331
S11300000C94B9000C94E1000C94E1000C94E10010
S11300100C94E1000C94E1000C94E1000C947F1624
S11300200C94E1000C94E1000C94E1000C94E100C8
S11300300C94E1000C94E1000C94E1000C94E100B8
S11300400C9469110C94E1000C94950F0C94C70F57
S11300500C94E1000C94E1000C94E1000C94E10098
S11300600C94E1000C94E1009305C805FD053206EB
S113007067069C06D10606073B0770076208AE07B1
S1130080B407BE076208620802081C082A083B0875
S1130090470807634236B79BD8A71A39685618AE83
S11300A0BAAB558C1D3CB7CC5763BD6DEDFD753EA9
S11300B0F6177231BF000000803F08000000BE92B6
S11300C02449123EABAAAA2ABECDCCCC4C3E000099
S11300D00080BEABAAAAAA3E00000000BF00000038
S11300E0803F0000000000084178D3BB4387D11350
S11300F03D190E3CC3BD4282AD2B3E68EC8276BEF8
S1130100D98FE1A93E4C80EFFFBE01C4FF7F3F00C1
S113011000000000000000080002010000030407C2
S113012000000000000000000102040810204080CC
S1130130010204081020010204081020040404042D
S1130140040404040202020202020303030303037D
S11301500000000023002600290000000000250004
S113016028002B0000000000240027002A002C0A8D
S1130170F70F11241FBECFEFD8E0DEBFCDBF12E0D2
S1130180A0E0B1E0E4E9F8E402C005900D92A032E9
S1130190B107D9F723E0A0E2B2E001C01D92A83E66
S11301A0B207E1F710E0C9EBD0E004C02197FE01EB
S11301B00E94C321C73BD107C9F70E9425100C94A4
S11301C048240C94000020E030E040E451E40E9414
S11301D0110C9B01AC010E94460A2DEC3CEC40E062
S11301E052E40E94B70A0E94D40C0E94300B9B0177
S11301F0AC0160E472E48FE090E00E9491210895E4
S11302002D9A64EF71E080E090E00E94E4112D9853
S11302100895CF93DF936CE472E08BE592E00E9443
S11302203215892B09F4F8C040914F0250915002C5
S1130230609151027091520220E130E08CE692E02C
S11302400E94F61080914F0290915002A0915102A9
S1130250B09152028D3922E692072FEFA207B10521
S113026009F4C4C008F057C08F3C20E392072FEF75
S1130270A207B10509F4A2C018F58F3E20E1920748
S11302802FEFA207B10509F4A2C048F48D3F9240B4
S1130290AF4FB10509F0B9C0CCE0D0E0B8C0873E9B
S11302A028E192072FEFA207B10509F48AC08D3D1A
S11302B09242AF4FB10509F0A8C0CBE0D0E0A7C08F
S11302C0853B2AE492072FEFA207B10509F485C004
S11302D088F4873C28E392072FEFA207B10509F4BD
S11302E079C08D3B9244AF4FB10509F08EC0C7E091
S11302F0D0E08DC08D3A22E592072FEFA207B10519
S113030009F46EC0853A9A45AF4FB10509F07DC036
S1130310C6E0D0E07CC08D3522EA92072FEFA20719
S1130320B10509F46CC018F585382AE792072FEF58
S1130330A207B10509F448C048F487399846AF4F7D
S1130340B10509F062C0C0E0D0E061C08F3620E999
S113035092072FEFA207B10509F445C087369849E3
S1130360AF4FB10509F051C0C0E1D0E050C08D33AA
S113037022EC92072FEFA207B10509F443C078F4E9
S1130380873528EA92072FEFA207B105A9F18F3428
S1130390904BAF4FB105C9F5C4E1D0E038C08F31FF
S11303A020EE92072FEFA207B10519F18D31924E7D
S11303B0AF4FB10551F5C2E1D0E029C0C1E0D0E0B2
S11303C026C0C2E0D0E023C0C3E0D0E020C0C4E037
S11303D0D0E01DC0C5E0D0E01AC0C8E0D0E017C02E
S11303E0C9E0D0E014C0CAE0D0E011C0CDE0D0E054
S11303F00EC0CEE0D0E00BC0CFE0D0E008C0C1E139
S1130400D0E005C0C3E1D0E002C0CFEFDFEF8BE561
S113041092E00E947A1402C0CFEFDFEFCE01DF91A9
S1130420CF91089520E277FD0FC0FC01611571059D
S113043039F0E60FF71FDF0111973C91308301C0BB
S1130440208361507109EFCF08959F92AF92BF92BC
S1130450CF92DF92EF92FF920F931F93CF93DF938C
S113046000D000D000D0CDB7DEB78C016B015A01AB
S113047067E072E00E9492137601C7018C199D090E
S11304808A159B05B4F4F70191907F01B801CE0160
S113049001960E94FB13692DCE0101960E9451140E
S11304A0BC01C8010E94E413CE0101960E942413EA
S11304B0E4CFC80126960FB6F894DEBF0FBECDBFB9
S11304C0DF91CF911F910F91FF90EF90DF90CF902C
S11304D0BF90AF909F900895FC0120E2AF01481BAC
S11304E0590B4617570714F42193F8CF089560E089
S11304F088E00E948F1261E08DE00E948F12389A8A
S11305008BE592E00E94641420E042E060E180E226
S113051092E00E94B62080E292E00E94942068E07B
S113052071E080E292E00E94811041E060E080E2AC
S113053092E00E949B2066E171E080E292E00E94DA
S1130540811068E873E180E090E00E94E41164E0C7
S113055070E088E492E00E946C0264E070E084E45D
S113056092E00E946C0264E070E080E492E00E94F9
S11305706C0264E070E08CE392E00E946C02E4E4BC
S1130580F2E091E3918380E3828383839093430237
S113059080933F0226E040E855E260E070E08CE69C
S11305A092E00C942C0FCF93DF9390ED980F9A3038
S11305B0A0F08E32B1F08032B9F08D32C1F0682FE4
S11305C08CE692E00E94831064E271E08CE692E093
S11305D00E948E10CFEFDFEF0CC0C82FD0E0E09761
S11305E008C0CAE0D0E005C0CBE0D0E002C0C4E15E
S11305F0D0E061E471E08CE692E00E9481104AE070
S113060050E0BE018CE692E00E945711CE01DF91CA
S1130610CF9108952F923F924F925F926F927F9263
S11306208F929F92AF92BF92CF92DF92EF92FF92FE
S11306300F931F93CF93DF936B013C01E12CF12CBB
S1130640C0E0D0E0312CB12C212C2B0181E0481AE0
S11306505108EC14FD040CF06DC0F30181913F01CD
S11306600E94D3028C018F3FFFEF9F0719F08A305D
S11306709105F1F467E471E08CE692E00E94811048
S11306804AE050E0B8018CE692E00E94571161E51F
S113069071E08CE692E00E9481106B2D70E04AE0DC
S11306A050E08CE692E00E945711332433943EC00C
S11306B08B309105D9F14497B9F1B2016E197F09D4
S11306C0072E000C880B990B0E94610B9B01AC0157
S11306D060E070E080E291E40E947E0C4B015C01DA
S11306E0B801110F880B990B0E94610BA5019401AD
S11306F00E94110C4B015C01BE01DD0F880B990BAC
S11307000E94610B9B01AC01C501B4010E94460A21
S11307100E94290BEB016AE571E08CE692E00E94ED
S11307208E10BB24B39402C0222423948FEFE81AC2
S1130730F80A8FCF311009C0BB2039F0222041F0D4
S1130740882799278C1B9D0B04C08FEF9FEF01C056
S1130750CE01DF91CF911F910F91FF90EF90DF9029
S1130760CF90BF90AF909F908F907F906F905F904D
S11307704F903F902F9008952F923F924F925F9207
S11307806F927F928F929F92AF92BF92CF92DF929D
S1130790EF92FF920F931F93CF93DF93CDB7DEB702
S11307A027970FB6F894DEBF0FBECDBF5B014C0197
S11307B0C12CD12C00E010E01F821B82212C312C93
S11307C019821A82712CCA14DB040CF08EC0F40155
S11307D081914F010E94D3027C01019641F08AE08D
S11307E0E816F10411F5E981EE2309F477C067E412
S11307F071E08CE692E00E9481104AE050E0B7017B
S11308008CE692E00E94571161E571E08CE692E07B
S11308100E948110672D70E04AE050E08CE692E07F
S11308200E945711F1E0FA835CC089818823F1F0BA
S1130830B1016C197D09072E000C880B990B0E94DD
S1130840610B9B01AC0160E070E080E291E40E94E6
S11308507E0C2B013C01B701FF0C880B990B0E9405
S1130860610BA30192010E94110C25C0EBE0EE166E
S1130870F104B9F12701FF0C66087708C114D1040B
S1130880B1F020E030E040E251E4B8018F819B8177
S11308900E94110C6B837C838D839E83C301B20100
S11308A00E94610B2B813C814D815E8109C0C30193
S11308B0B2010E94610B9B01AC01B8018F819B8145
S11308C00E94460A8B018F839B836AE571E08CE664
S11308D092E00E948E107724739403C01601F1E015
S11308E0F9838FEFC81AD80A6ECFEA81E11109C0E3
S11308F071100DC000E010E0E0E8EF83FFEBFB8334
S113090006C000E010E0F0E8FF838FEB8B83B801B2
S11309108F819B8127960FB6F894DEBF0FBECDBFA3
S1130920DF91CF911F910F91FF90EF90DF90CF90C7
S1130930BF90AF909F908F907F906F905F904F90FB
S11309403F902F9008954F925F926F927F928F9273
S11309509F92AF92BF92CF92DF92EF92FF920F934A
S11309601F93CF9368E671E08CE692E00E948E10AC
S113097064E070E088E492E00E94BC034B015C01F7
S113098064E070E084E492E00E940A036C01BC011C
S1130990990F880B990B0E94610B2B013C0164E0B9
S11309A070E080E492E00E940A037C0164E070E05D
S11309B08CE392E00E940A038C0120E030E040E8DE
S11309C05FEBC501B4010E94B20A882351F0809202
S11309D0650290926602A0926702B0926802C1E03A
S11309E001C0C0E020E030E040E85FEBC301B201A9
S11309F00E94B20A882329F0D0926402C092630252
S1130A0001C0C0E08FEFE816F80629F0F092070164
S1130A10E092060101C0C0E00F3F8FEF180729F0F4
S1130A20109362020093610201C0C0E08C2FCF9149
S1130A301F910F91FF90EF90DF90CF90BF90AF90F8
S1130A409F908F907F906F905F904F90089564E790
S1130A5071E08CE692E00E948E1080E292E00E94A7
S1130A608D2080E292E00E947B2180E292E00E944D
S1130A70942060E871E080E292E00E94811060E9D5
S1130A8071E08CE692E00E948E1068EB7BE080E0DF
S1130A9090E00E94E4116CE971E08CE692E00C9421
S1130AA08E10FC0130813032A1F440E050E0DB01D3
S1130AB01197461757070CF5FC01E40FF51F4A1769
S1130AC05B0719F03181308301C020834F5F5F4F92
S1130AD0F0CF80E292E00E948D2080E292E00E94BA
S1130AE0942066EA71E080E292E00E94811060ED59
S1130AF077E080E090E00C94E4110895CF93DF93C5
S1130B000E940901EC01BC016E547E4F8CE692E018
S1130B100E948E10C531D10508F0D4C2FE01EC5CF0
S1130B20FF4F0C94C3212091690230916A02809195
S1130B303A0290913B0221303105A9F4009759F013
S1130B40019709F0BFC240913802509139024C50CC
S1130B50510920E3E5C140913802509139024C50CB
S1130B60510920E364C2009759F0019709F0AAC221
S1130B7040913802509139024C50510920E39AC2F5
S1130B8040913802509139024C50510920E3E1C19F
S1130B902091690230916A0280913A0290913B025D
S1130BA021303105A9F4009759F0019709F08AC260
S1130BB040913802509139024C50510921E3B0C19F
S1130BC040913802509139024C50510921E32FC20F
S1130BD0009759F0019709F075C24091380250917D
S1130BE039024C50510921E365C2409138025091B9
S1130BF039024C50510921E3ACC120916902309172
S1130C006A0280913A0290913B0221303105A9F4A5
S1130C10009759F0019709F055C24091380250915C
S1130C2039024C50510922E37BC140913802509162
S1130C3039024C50510922E3FAC1009759F0019747
S1130C4009F040C240913802509139024C50510988
S1130C5022E330C240913802509139024C5051097C
S1130C6022E377C12091690230916A0280913A02AD
S1130C7090913B0221303105A9F4009759F0019776
S1130C8009F020C240913802509139024C50510968
S1130C9023E346C140913802509139024C50510926
S1130CA023E3C5C1009759F0019709F00BC24091A5
S1130CB03802509139024C50510923E3FBC1409151
S1130CC03802509139024C50510923E342C120911A
S1130CD0690230916A0280913A0290913B0221307C
S1130CE03105A9F4009759F0019709F0EBC140913F
S1130CF03802509139024C50510924E311C14091FA
S1130D003802509139024C50510924E390C10097A4
S1130D1059F0019709F0D6C1409138025091390237
S1130D204C50510924E3C6C1409138025091390214
S1130D304C50510924E30DC12091690230916A029B
S1130D4080913A0290913B0221303105A9F4009739
S1130D5059F0019709F0B6C1409138025091390217
S1130D604C50510925E3DCC04091380250913902BE
S1130D704C50510925E35BC1009759F0019709F0E4
S1130D80A1C140913802509139024C50510925E3D8
S1130D9091C140913802509139024C50510925E3D8
S1130DA0D8C02091690230916A0280913A029091F0
S1130DB03B0221303105A9F4009759F0019709F05D
S1130DC081C140913802509139024C50510926E3B7
S1130DD0A7C040913802509139024C50510926E382
S1130DE026C1009759F0019709F06CC1409138026F
S1130DF0509139024C50510926E35CC140913802AC
S1130E00509139024C50510926E3A3C02091690244
S1130E1030916A0280913A0290913B02213031056F
S1130E20A9F4009759F0019709F04CC14091380298
S1130E30509139024C50510927E372C04091380255
S1130E40509139024C50510927E3F1C0009759F0F1
S1130E50019709F037C140913802509139024C5042
S1130E60510927E327C140913802509139024C506F
S1130E70510927E36EC02091690230916A02809182
S1130E803A0290913B0221303105A9F4009759F0C0
S1130E90019709F017C140913802509139024C5022
S1130EA0510928E33DC040913802509139024C5019
S1130EB0510928E3BCC0009759F0019709F002C119
S1130EC040913802509139024C50510928E3F2C044
S1130ED040913802509139024C50510928E339C0ED
S1130EE02091690230916A0280913A0290913B020A
S1130EF021303105D1F4009759F0019709F0E2C08F
S1130F0040913802509139024C50510929E308C0EC
S1130F1040913802509139024C50510929E387C05D
S1130F2064E070E084E492E0C9C0009759F001974E
S1130F3009F0C8C040913802509139024C5051090F
S1130F4029E3B8C040913802509139024C505109FC
S1130F5029E364E070E080E492E0B0C0809169022B
S1130F6090916A02019705C08091690290916A028A
S1130F70019690936A0280936902A4C02091690249
S1130F8030916A0280913A0290913B0221303105FE
S1130F90D9F4009771F0019709F094C06091380278
S1130FA0709139026C50710944E050E084E492E09D
S1130FB025C060913802709139026C50710944E087
S1130FC050E088E492E01AC0009771F0019709F0AC
S1130FD079C060913802709139026C50710944E013
S1130FE050E08CE392E00AC06091380270913902BB
S1130FF06C50710944E050E080E492E0DF91CF91BD
S11310000C9412028091690290916A02019709F08E
S113101059C080913A0290913B02892B09F052C049
S113102040913802509139024C5051092EE264E04B
S113103070E088E492E042C080913A0290913B02D1
S1131040892B09F03FC081E090E090933B028093AC
S11310503A020AC080913A0290913B02019791F5BD
S113106010923B0210923A028FE090E09093390282
S11310708093380227C00E94A304882321F081E0D2
S113108080936B021FC0DF91CF910C942705809150
S1131090690290916A020297A9F480913A029091B0
S11310A03B02019779F440913802509139024C5037
S11310B051092DE264E070E08CE392E0DF91CF917E
S11310C00C945105DF91CF9108950F931F938C01D8
S11310D080916002811119C0409A0E94B311012EBF
S11310E0000C220B330BDC01CB01800F911FA21FDC
S11310F0B31F80935C0290935D02A0935E02B09351
S11311005F0281E08093600213C00E94B3110091DA
S11311105C0210915D0220915E0230915F026017C3
S113112071078207930720F088B118B81092600203
S11311301F910F9108958F929F92AF92BF92CF9279
S1131140DF92EF92FF92CF93DF93EC014B015A01B0
S11311500E94BF116B017C0160916502709166026F
S113116080916702909168020E94E300C60ED71E28
S1131170E81EF91E81E088169104B1F4CE010E94A4
S113118065080E94BF116C157D058E059F05C8F387
S1131190DF91CF91FF90EF90DF90CF90BF90AF9011
S11311A09F908F900C94000182E08816910474F152
S11311B0B501BB0C880B990B0E94610B2FE632E141
S11311C043E85AE30E94110C0E94300B4B015C016E
S11311D0CE010E9465080E94BF11860E971EA81EAC
S11311E0B91E0E94BF116C157D058E059F0558F42C
S11311F00E94BF11681579058A059B0590F3CE01FD
S11312000E946508EECF0E940001F2CFDF91CF91DA
S1131210FF90EF90DF90CF90BF90AF909F908F9012
S113122008950F931F93CF93DF93CDB7DEB72C9719
S11312300FB6F894DEBF0FBECDBF10926A021092B3
S113124069020FE010E080916B028111DEC0109200
S11312503B0210923A0210933902009338028091B3
S1131260690290916A02892B09F060C080916B0237
S113127081115CC080E292E00E948D2080E292E0C5
S11312800E94822180E292E00E94942044E050E097
S113129068E472E0CE0107960E94250269EB71E0D2
S11312A080E292E00E948110BE01695F7F4F80E27C
S11312B092E00E94731041E060E080E292E00E94BC
S11312C09B2044E050E064E472E0CE0101960E9469
S11312D02502BE016F5F7F4FCE0107960E94041462
S11312E0CE0101960E94241366EC71E080E292E044
S11312F00E948110BE01695F7F4F80E292E00E94EC
S1131300731040913A026091380280E292E00E94A8
S11313109B200E947E0564EF71E080E090E00E94D3
S1131320E411CE0107960E94241399CF10923B0238
S113133010923A02109339020093380280916902A4
S113134090916A02019709F07ECF80916B0281111E
S11313507ACF80E292E00E948D2080E292E00E94A7
S1131360822180E292E00E94942044E050E060E414
S113137072E0CE0107960E94250261ED71E080E2E1
S113138092E00E948110BE01695F7F4F80E292E08B
S11313900E94731041E060E080E292E00E949B2092
S11313A06CED71E080E292E00E94811044E050E034
S11313B06CE372E0CE0101960E942502BE016F5FCC
S11313C07F4FCE0107960E940414CE0101960E941D
S11313D02413BE01695F7F4F80E292E00E94731084
S11313E040913A026091380280E292E00E949B2090
S11313F00E947E0564EF71E080E090E00E94E411B9
S1131400CE0107960E94241399CF80E292E00E94B5
S11314108D2080E292E00E94942067EE71E080E2E9
S113142092E00E94811040916102509162026091A9
S113143006017091070180916302909164020E94F9
S11314409B082C960FB6F894DEBF0FBECDBFDF917C
S1131450CF911F910F910895CF92EF920F9368E06F
S113146070E08BE592E00E945F1482E0C82E93E066
S1131470E92E04E025E04BE06CE080E292E00E947B
S11314805B210F91EF90CF9008955058BB27AA2766
S11314900E945D0A0C94D70B0E94C90B38F00E947D
S11314A0D00B20F039F49F3F19F426F40C94C60BAA
S11314B00EF4E095E7FB0C94C00BE92F0E94E80BB7
S11314C058F3BA17620773078407950720F079F475
S11314D0A6F50C940A0C0EF4E0950B2EBA2FA02D51
S11314E00B01B90190010C01CA01A0011124FF27CD
S11314F0591B99F0593F50F4503E68F11A16F040C8
S1131500A22F232F342F4427585FF3CF46953795C6
S11315102795A795F0405395C9F77EF41F16BA0B8B
S1131520620B730B840BBAF09150A1F0FF0FBB1F39
S1131530661F771F881FC2F70EC0BA0F621F731F82
S1131540841F48F4879577956795B795F7959E3FDF
S113155008F0B0CF9395880F08F09927EE0F979570
S1131560879508950E949C0B08F481E008950E94D9
S1131570CB0A0C94D70B0E94D00B58F00E94C90BD5
S113158040F029F45F3F29F00C94C00B51110C94E6
S11315900B0C0C94C60B0E94E80B68F39923B1F36F
S11315A0552391F3951B550BBB27AA276217730785
S11315B0840738F09F5F5F4F220F331F441FAA1F19
S11315C0A9F335D00E2E3AF0E0E832D091505040D5
S11315D0E695001CCAF72BD0FE2F29D0660F771F83
S11315E0881FBB1F261737074807AB07B0E809F069
S11315F0BB0B802DBF01FF2793585F4F3AF09E3FEE
S1131600510578F00C94C00B0C940B0C5F3FE4F381
S1131610983ED4F3869577956795B795F7959F5F30
S1131620C9F7880F911D9695879597F90895E1E07C
S1131630660F771F881FBB1F621773078407BA07DB
S113164020F0621B730B840BBA0BEE1F88F7E09536
S113165008950E94300B6894B1110C940B0C0895FA
S11316600E94F00B88F09F5798F0B92F9927B75133
S1131670B0F0E1F0660F771F881F991F1AF0BA9532
S1131680C9F714C0B13091F00E940A0CB1E008957A
S11316900C940A0C672F782F8827B85F39F0B93F6C
S11316A0CCF3869577956795B395D9F73EF49095E5
S11316B08095709561957F4F8F4F9F4F0895E89463
S11316C009C097FB3EF490958095709561957F4F86
S11316D08F4F9F4F9923A9F0F92F96E9BB27939534
S11316E0F695879577956795B795F111F8CFFAF444
S11316F0BB0F11F460FF1BC06F5F7F4F8F4F9F4F75
S113170016C0882311F096E911C0772321F09EE8D2
S1131710872F762F05C0662371F096E8862F70E038
S113172060E02AF09A95660F771F881FDAF7880F12
S11317309695879597F90895990F0008550FAA0B68
S1131740E0E8FEEF16161706E807F907C0F01216D0
S11317501306E407F50798F0621B730B840B950BD3
S113176039F40A2661F0232B242B252B21F4089528
S11317700A2609F4A140A6958FEF811D811D0895C5
S113178097F99F6780E870E060E008959FEF80EC30
S1131790089500240A9416161706180609060895D3
S11317A000240A9412161306140605060895092E39
S11317B00394000C11F4882352F0BB0F40F4BF2BA8
S11317C011F460FF04C06F5F7F4F8F4F9F4F0895E8
S11317D057FD9058440F551F59F05F3F71F04795DE
S11317E0880F97FB991F61F09F3F79F087950895C3
S11317F0121613061406551FF2CF4695F1DF08C0E2
S1131800161617061806991FF1CF869571056105FE
S113181008940895E894BB2766277727CB0197F9A6
S113182008950E94240C0C94D70B0E94C90B38F025
S11318300E94D00B20F0952311F00C94C00B0C9453
S1131840C60B11240C940B0C0E94E80B70F3959FAB
S1131850C1F3950F50E0551F629FF001729FBB27A3
S1131860F00DB11D639FAA27F00DB11DAA1F649F3F
S11318706627B00DA11D661F829F2227B00DA11DF2
S1131880621F739FB00DA11D621F839FA00D611D78
S1131890221F749F3327A00D611D231F849F600D99
S11318A0211D822F762F6A2F11249F5750409AF0C2
S11318B0F1F088234AF0EE0FFF1FBB1F661F771F4E
S11318C0881F91505040A9F79E3F510580F00C9419
S11318D0C00B0C940B0C5F3FE4F3983ED4F3869555
S11318E077956795B795F795E7959F5FC1F7FE2BB9
S11318F0880F911D9695879597F90895FA01EE0F33
S1131900FF1F309621053105A1F16115710561F4C0
S11319108038BFE39B0749F168949038810561F0F2
S11319208038BFEF9B0741F099234AF5FF3FE1055B
S11319303105210519F1E8940894E795D901AA2302
S113194029F4AB2FBE2FF85FD0F310C0FF5F70F403
S1131950A695E0F7F73950F019F0FF3A38F49F777D
S11319609F930DD00F9007FC9058089546F00C9467
S1131970C60B60E070E080E89FE308954FE79F772F
S11319805F934F933F932F930E94D40D2F913F91D8
S11319904F915F910E94110C0C941C0D19F416F4D4
S11319A00C94C60B0C944E0D0E94F00BB8F39923C3
S11319B0C9F3B6F39F57550B87FF0E945C0D0024B3
S11319C0A0E640EA900180585695979528F4805CEB
S11319D0660F771F881F20F026173707480730F453
S11319E0621B730B840B202931294A2BA69517946B
S11319F00794202531254A2758F7660F771F881F3B
S1131A0020F026173707480730F4620B730B840B5A
S1131A10200D311D411DA09581F7B901842F9158E6
S1131A20880F96958795089529F416F00C94C00BA9
S1131A300C940A0C0C94C60B0E94F00BA8F3963875
S1131A40A0F707F80F92E8942BE33AEA48EB5FE734
S1131A500E94270C0F920F920F924DB75EB70F9210
S1131A600E941C0EE2E9F0E00E94630D4F915F9129
S1131A70EF91FF91E595EE1FFF1F49F0FE57E068D7
S1131A804427EE0F441FFA95E1F74195550B0E9448
S1131A90960D0F9007FE0C948A0D08959F3F31F028
S1131AA0915020F4879577956795B795880F911D88
S1131AB09695879597F9089591505040660F771F32
S1131AC0881FD2F70895DF93CF931F930F93FF924C
S1131AD0EF92DF927B018C01689406C0DA2EEF014D
S1131AE00E94240CFE01E894A5912591359145911D
S1131AF05591A6F3EF010E945D0AFE019701A8012A
S1131B00DA9469F7DF90EF90FF900F911F91CF91D6
S1131B10DF9108959B01AC0160E070E080E89FE3F1
S1131B200C94B70A0C94C00B0C944E0D0E94F00B4D
S1131B30D8F39923C9F3940F511DA3F39150504046
S1131B4094F059F0882332F0660F771F881F915064
S1131B505040C1F79E3F51052CF7880F911D969573
S1131B60879597F908955F3FACF0983E9CF0BB27AA
S1131B70869577956795B79508F4B1609395C1F705
S1131B80BB0F58F711F460FFE8CF6F5F7F4F8F4FA3
S1131B909F4FE3CF0C940B0C16F00C944E0D0C9449
S1131BA0C60B68940C94C00B0E94F00BA8F3992305
S1131BB0C1F3AEF3DF93CF931F930F93FF92C92F1B
S1131BC0DD2788232AF02197660F771F881FDAF70D
S1131BD020E030E040E85FEB9FE3883920F0803E6E
S1131BE038F021968F770E94460AEAEBF0E004C0B1
S1131BF00E94460AE7EEF0E00E94630D8B01BE01ED
S1131C00EC01FB2E6F5771097595771F880B990BA3
S1131C100E94610B28E132E741E35FE30E94240C58
S1131C20AF2D9801AE01FF900F911F91CF91DF91DD
S1131C300E945D0A0C94D70BFA01DC01AA0FBB1FAA
S1131C409B01AC01BF5728F422273327442750783F
S1131C5020C0B75190F4AB2F0024469537952795B3
S1131C60011CA395D2F3002071F0220F331F441FEF
S1131C70B395DAF30ED00C94450A61307105A0E8EF
S1131C808A07B94630F49B01AC0166277727882779
S1131C909078309621F020833183428353830895D2
S1131CA0FC01918D228D892F90E0805C9F4F821BD7
S1131CB091098F7399270895FC01918D828D98174E
S1131CC031F0828DE80FF11D858D90E008958FEF3E
S1131CD09FEF0895FC01918D828D981761F0828D9C
S1131CE0DF01A80FB11D5D968C91928D9F5F9F734C
S1131CF0928F90E008958FEF9FEF0895FC01538D2C
S1131D00448D252F30E0842F90E0821B930B5417D1
S1131D1010F0CF960895019708958DEE9FE0892BDA
S1131D2049F080E090E0892B29F00E94ED0F8111A9
S1131D300C9400000895FC01848DDF01A80FB11DEF
S1131D40A35ABF4F2C91848D90E001968F739927ED
S1131D50848FA689B7892C93A089B1898C918370CB
S1131D6080648C93938D848D981306C00288F389C4
S1131D70E02D80818F7D80830895EF92FF920F93F1
S1131D801F93CF93DF93EC0181E0888F9B8D8C8D23
S1131D90981305C0E889F989808185FD26C0F62E4F
S1131DA00B8D10E00F5F1F4F0F731127E02E8C8DEA
S1131DB0E8120CC00FB607FCFACFE889F9898081D4
S1131DC085FFF5CFCE010E949B0EF1CF8B8DFE01D6
S1131DD0E80FF11DE35AFF4FF0829FB7F8940B8F81
S1131DE0EA89FB89808180620AC09FB7F894EE89F2
S1131DF0FF896083E889F9898081837080648083A6
S1131E009FBF81E090E0DF91CF911F910F91FF90F0
S1131E10EF900895CF93DF93EC01888D8823C9F068
S1131E20EA89FB89808185FD05C0A889B9898C91DF
S1131E3086FD0FC00FB607FCF5CF808185FFF2CF7A
S1131E40A889B9898C9185FFEDCFCE010E949B0EA4
S1131E50E7CFDF91CF910895CF92DF92EF92FF9277
S1131E601F93CF93DF93EC016A017B01122FE88962
S1131E70F98982E080834115514E61057105B1F005
S1131E8060E079E08DE390E0A70196010E94A12132
S1131E90DA01C9010197A109B109B695A7959795EA
S1131EA087959C01211580E13807A8F0E889F98914
S1131EB0108260E874E88EE190E0A70196010E9428
S1131EC0A121DA01C9010197A109B109B695A79524
S1131ED0979587959C01EC85FD853083EE85FF857C
S1131EE02083188EEC89FD891083EA89FB8980811F
S1131EF080618083EA89FB89808188608083EA89A4
S1131F00FB89808180688083EA89FB8980818F7D59
S1131F108083DF91CF911F91FF90EF90DF90CF905E
S1131F20089580E090E0089508951F920F920FB6EF
S1131F300F9211242F938F939F93EF93FF93E0912C
S1131F407C02F0917D028081E0918202F091830213
S1131F5082FD12C09081809185028F5F8F732091E2
S1131F608602821751F0E0918502F0E0E459FD4FBA
S1131F70958F8093850201C08081FF91EF919F919D
S1131F808F912F910F900FBE0F901F9018951F9255
S1131F900F920FB60F9211242F933F934F935F9399
S1131FA06F937F938F939F93AF93BF93EF93FF931D
S1131FB08CE692E00E949B0EFF91EF91BF91AF914E
S1131FC09F918F917F916F915F914F913F912F914D
S1131FD00F900FBE0F901F9018958CE692E00E9410
S1131FE0500E21E0892B09F420E0822F0895ECE6BD
S1131FF0F2E01382128288EE93E0A0E0B0E08483E2
S11320009583A683B78387EF91E09183808385ECE2
S113201090E09587848784EC90E09787868780ECAE
S113202090E0918B808B81EC90E0938B828B82EC9F
S113203090E0958B848B86EC90E0978B868B118E49
S1132040128E138E148E089508950E942B120E94EE
S113205024100E947702CDE8DEE00E941109209747
S1132060E1F30E948D0EF9CFCF92DF92EF92FF92AF
S11320700F931F93CF93DF936C017A018B01C0E020
S1132080D0E0CE15DF0581F0D8016D918D01D60128
S1132090ED91FC910190F081E02DC6010995892B09
S11320A011F02196EECF7E01C701DF91CF911F91F0
S11320B00F91FF90EF90DF90CF9008956115710517
S11320C079F0FB0101900020E9F73197AF01461B3D
S11320D0570BDC01ED91FC910280F381E02D099412
S11320E080E090E00895DB0114964D915C91159782
S11320F06D917C91DC01ED91FC910280F381E02DE6
S113210009940C945E10DC01ED91FC910190F08136
S1132110E02D099465E072E00C945E100F931F9318
S1132120CF93DF93EC010E945E108C01CE010E94DC
S11321308A10800F911FDF91CF911F910F91089505
S11321408F929F92AF92BF92EF92FF920F931F9341
S1132150CF93DF93CDB7DEB7A1970FB6F894DEBF68
S11321600FBECDBF7C01FA01CB0119A2223008F4C5
S11321702AE08E010F5D1F4F822E912CA12CB12CD1
S1132180BF01A50194010E94A121F901CA010150D6
S113219011096A3010F4605D01C0695CD8016C9368
S11321A0232B242B252B61F7B801C7010E945E1055
S11321B0A1960FB6F894DEBF0FBECDBFDF91CF91CD
S11321C01F910F91FF90EF90BF90AF909F908F90D1
S11321D008952115310541F4DC01ED91FC91019044
S11321E0F081E02D642F09940C94A0100F931F9399
S11321F0CF93DF93EC010E94E9108C01CE010E9481
S11322008A10800F911FDF91CF911F910F91089534
S1132210CF92DF92EF92FF920F931F93CF93DF93AE
S11322202115310581F4DC01ED91FC910190F081DF
S1132230E02D642FDF91CF911F910F91FF90EF90CC
S1132240DF90CF9009942A30310501F577FF1DC046
S11322506A017B01EC016DE20E9483108C0144272A
S11322605527BA014C195D096E097F092AE0CE0190
S11322700E94A010800F911FDF91CF911F910F91A9
S1132280FF90EF90DF90CF9008952AE0DF91CF91F7
S11322901F910F91FF90EF90DF90CF900C94A010BE
S11322A09A01AB01770F660B770B0C9408110F930F
S11322B01F93CF93DF93EC010E9450118C01CE0148
S11322C00E948A10800F911FDF91CF911F910F916F
S11322D008951F920F920FB60F9211242F933F93DC
S11322E08F939F93AF93BF9380910A0390910B03B5
S11322F0A0910C03B0910D033091090323E0230F47
S11323002D3720F40196A11DB11D05C026E8230F29
S11323100296A11DB11D2093090380930A03909393
S11323200B03A0930C03B0930D0380910E039091C3
S11323300F03A0911003B09111030196A11DB11DCB
S113234080930E0390930F03A0931003B093110393
S1132350BF91AF919F918F913F912F910F900FBE9D
S11323600F901F9018952FB7F89460910A037091FD
S11323700B0380910C0390910D032FBF08953FB779
S1132380F89480910E0390910F03A0911003B091E3
S1132390110326B5A89B05C02F3F19F00196A11D76
S11323A0B11D3FBFBA2FA92F982F8827820F911DE7
S11323B0A11DB11DBC01CD0142E0660F771F881F2E
S11323C0991F4A95D1F708958F929F92AF92BF9229
S11323D0CF92DF92EF92FF926B017C010E94BF11BA
S11323E04B015C01C114D104E104F10401F10E9428
S11323F090210E94BF11DC01CB0188199909AA0917
S1132400BB09883E9340A105B10560F321E0C21ADF
S1132410D108E108F10888EE880E83E0981EA11C1B
S1132420B11CC114D104E104F10419F7DBCFFF900E
S1132430EF90DF90CF90BF90AF909F908F900895D2
S11324408230910538F0880F991F880F991F0597DE
S11324500197F1F70895789484B5826084BD84B5BA
S1132460816084BD85B5826085BD85B5816085BD8B
S1132470EEE6F0E0808181608083E1E8F0E01082A4
S1132480808182608083808181608083E0E8F0E0E5
S1132490808181608083E1EBF0E0808184608083CF
S11324A0E0EBF0E0808181608083EAE7F0E0808106
S11324B08460808380818260808380818160808366
S11324C08081806880831092C1000895833081F0F8
S11324D028F4813099F08230A1F008958730A9F072
S11324E08830B9F08430D1F4809180008F7D03C0AE
S11324F0809180008F7780938000089584B58F77D2
S113250002C084B58F7D84BD08958091B0008F771B
S113251003C08091B0008F7D8093B0000895CF9365
S1132520DF9390E0FC01E85DFE4F2491FC01E45C44
S1132530FE4F8491882361F190E0880F991FFC017C
S1132540EC59FE4FC591D491FC01E65AFE4FA5917A
S1132550B491611109C09FB7F894888120958223B2
S11325608883EC912E230BC0623061F49FB7F894FA
S11325708881322F309583238883EC912E2B2C93E2
S11325809FBF06C08FB7F894E8812E2B28838FBF96
S1132590DF91CF9108951F93CF93DF93282F30E0DD
S11325A0F901EC5EFE4F8491F901E85DFE4FD49190
S11325B0F901E45CFE4FC491CC23C1F0162F8111C4
S11325C00E946612EC2FF0E0EE0FFF1FE65AFE4F5A
S11325D0A591B4919FB7F894111104C08C91D09532
S11325E0D82302C0EC91DE2BDC939FBFDF91CF9107
S11325F01F910895CF93DF93282F30E0F901EC5E0B
S1132600FE4F8491F901E85DFE4FD491F901E45C39
S1132610FE4FC491CC2391F081110E946612EC2FDD
S1132620F0E0EE0FFF1FE05BFE4FA591B491EC913B
S1132630ED2381E090E021F480E002C080E090E0AE
S1132640DF91CF9108950895FC01808191810C94CC
S1132650B222CF93DF93EC0188819981009711F026
S11326600E94B222198218821D821C821B821A8245
S1132670DF91CF9108950F931F93CF93DF93EC01D4
S11326808B016F5F7F4F888199810E943B23009764
S113269031F0998388831B830A8381E001C080E041
S11326A0DF91CF911F910F910895CF93DF93EC01A8
S11326B088819981892B29F08A819B8186179707C4
S11326C060F4CE010E943B13882341F08C819D81EC
S11326D0892B19F4E881F981108281E0DF91CF918F
S11326E00895EF92FF920F931F93CF93DF93EC0122
S11326F07B018A01BA010E945513811104C0CE01E5
S11327000E94291307C01D830C83B7018881998116
S11327100E940A24CE01DF91CF911F910F91FF9067
S1132720EF900895FC0111821082138212821582A7
S113273014826115710551F0FB0101900020E9F745
S11327403197AF01461B570B0C94711308950F93E7
S11327501F93CF93DF938C01EB01FC018081918166
S11327600097D1F0688179816115710599F023E2B0
S113277033E1232B79F0428153812C813D8142172F
S1132780530740F00E940A248C819D81F8019583AF
S1132790848313C00E94B22288819981F8019183B5
S11327A080838A819B81938382838C819D8195839D
S11327B08483198218821B821A821D821C82DF91F3
S11327C0CF911F910F910895CF93DF93EC01FB01FB
S11327D08617970761F0608171816115710529F091
S11327E0448155810E94711302C00E942913CE01B5
S11327F0DF91CF910895FC0111821082138212821D
S1132800158214820C94E413CF93DF93EC018617A2
S1132810970711F00E94A713CE01DF91CF9108957D
S1132820EF92FF920F931F93CF93DF93611571057E
S113283011F480E01CC041155105C1F07B01EC018D
S11328408C819D818A01080F191FB801CE010E9455
S11328505513882371F3288139818C819D81B701B7
S1132860820F931F0E940A241D830C8381E0DF9151
S1132870CF911F910F91FF90EF900895CF93DF9325
S113288000D0CDB7DEB769831A8241E050E0BE01C3
S11328906F5F7F4F0E9410140F900F90DF91CF91C4
S11328A00895CF93DF93EC010E943E14811103C07D
S11328B0CE010E942913CE01DF91CF910895E2E168
S11328C0F3E0618313820895F89482E08093B0006A
S11328D08093B10094E69093B3001092B200809379
S11328E070007894E2E1F3E080831482818160E0F7
S11328F00C948F12E2E1F3E082E080831482089565
S11329008F929F92AF92BF92CF92DF92EF92FF92FB
S1132910CF93DF93EB01BA0180E090E00E945F0B5C
S11329204B015C01BE0180E090E00E945F0B6B01F3
S11329307C012DEC3CEC4CE45FE30E94110C9B0108
S1132940AC01C501B4010E94B20A87FD17C02DEC89
S11329503CEC4CE45FE3C501B4010E94110C9B0103
S1132960AC01C701B6010E94B20A082E000C990BF3
S11329708827990F881F9927019602C080E090E06C
S1132980DF91CF91FF90EF90DF90CF90BF90AF9009
S11329909F908F9008958F929F92AF92BF92CF9203
S11329A0DF92EF92FF920F931F93CF93DF93FB017C
S11329B0E384F484F6E0EF16F1040CF443C0EB0175
S11329C06C01EE0CFF1C06E010E095EC892E9DE9ED
S11329D0992E9CE1A92E91E8B92EE985FA85DF01AB
S11329E0A00FB11F4D915C91C8010497E80FF91F26
S11329F060817181C6010E948014FC01A5019401CB
S1132A0063E971E080E091E00E9491214F01FF0FA2
S1132A10AA08BB0886269726A826B9260E5F1F4F4C
S1132A200E151F05D1F68B829C82AD82BE8280E298
S1132A3090E098878F838FEF888361E070E080E077
S1132A4090E003C060E070E0CB01DF91CF911F9173
S1132A500F91FF90EF90DF90CF90BF90AF909F9039
S1132A608F9008950F931F93CF93DF93EB0129E188
S1132A7033E03A8729872091160330E03C872B877F
S1132A802091E30330E03E872D8720911203253007
S1132A9009F05EC08C010E94221A882319F081E09B
S1132AA090E058C0BE01C8010E94AF1E8111F7CF4B
S1132AB0BE01C8010E940A1E8111F1CFBE01C801E6
S1132AC00E948B198111EBCFBE01C8010E94CD1B5E
S1132AD08111E5CFBE01C8010E94711C8111DFCFB5
S1132AE0BE01C8010E94C01A8111D9CFBE01C8011C
S1132AF00E9400198111D3CFBE01C8010E94491858
S1132B008111CDCFBE01C8010E946C1D8111C7CFB8
S1132B10BE01C8010E944A1F8111C1CFBE01C80174
S1132B200E9439178111BBCFBE01C8010E94CF1783
S1132B308111B5CFBE01C8010E94CB14672B682B4D
S1132B40692B09F0ACCF82E0809312031092160334
S1132B5080E090E0DF91CF911F910F910895CF9283
S1132B60DF92EF92FF92CF93DF93EC01072E000CDC
S1132B70880B990B0E94610B6B017C0120E030E013
S1132B8040E45FE30E94110C20E030E048E452E4AA
S1132B900E94B70A0E94290BC617D707D4F020E079
S1132BA030E040EA5FE3C701B6010E94110C20E067
S1132BB030E048E452E40E94B70A20E030E040E804
S1132BC05FE30E94460A0E94290B21E06C177D07EF
S1132BD00CF420E0822F90E0DF91CF91FF90EF90F2
S1132BE0DF90CF900895CF92DF92EF92FF92CF9330
S1132BF0DF93EC016C597F4F072E000C880B990B67
S1132C000E94610B6B017C0120E030E040E45FE353
S1132C100E94110C20E030E048E452E40E94B70A1C
S1132C200E94290BC617D707D4F020E030E040EA11
S1132C305FE3C701B6010E94110C20E030E048E4D4
S1132C4052E40E94B70A20E030E040E85FE30E94CB
S1132C50460A0E94290B21E06C177D070CF420E042
S1132C60822F90E0DF91CF91FF90EF90DF90CF9093
S1132C700895CF92DF92EF92FF92CF93DF93EC010E
S1132C8064567109072E000C880B990B0E94610B86
S1132C906B017C0120E030E040E45FE30E94110C12
S1132CA020E030E048E452E40E94B70A0E94290B75
S1132CB0C617D707D4F020E030E040EA5FE3C7014D
S1132CC0B6010E94110C20E030E048E452E40E9476
S1132CD0B70A20E030E040E85FE30E94460A0E9421
S1132CE0290B21E06C177D070CF420E0822F90E083
S1132CF0DF91CF91FF90EF90DF90CF9008951F92D6
S1132D000F920FB60F9211242F933F934F935F931B
S1132D106F937F938F939F93AF93BF93EF93FF939F
S1132D20809113030E94FA12209117033091180323
S1132D302F5F3F4F3093180320931703909116038E
S1132D40953618F096E09093120390911203943004
S1132D50C9F128F4923069F09330D1F05EC0953017
S1132D6009F451C0963009F058C091E09093E30300
S1132D7051C0811152C02091170330911803243699
S1132D80310508F442C01092E303109216031CC0EC
S1132D90813009F042C0E091160391E09E0F9093B8
S1132DA01603F0E02091170330911803EE0FFF1F74
S1132DB0EE5EFC4F3087278310921803109217039E
S1132DC094E029C0811117C0E091160391E09E0F91
S1132DD090931603F0E02091170330911803EE0F3F
S1132DE0FF1FEE5EFC4F308727831092180310926A
S1132DF0170393E010C02091170330911803253670
S1132E00310558F007C0811108C0109218031092C0
S1132E10170303C095E0909312039091150399232F
S1132E20B9F081110AC080911403882321F08091A4
S1132E30140361E009C02D9A0BC080911403882308
S1132E4031F08091140360E00E94CB1201C02D98F0
S1132E50FF91EF91BF91AF919F918F917F916F916E
S1132E605F914F913F912F910F900FBE0F901F9044
S1132E7018958F929F92AF92BF92CF92DF92EF926A
S1132E80FF920F931F93CF93DF938091160388359E
S1132E9010F480E077C0EB01E985FA8582819381A3
S1132EA060E672E20E94F315892B99F3E985FA85AD
S1132EB08481958164E971E10E943916892B49F373
S1132EC05EE1A52EB12C6DE1C62ED12C00E010E000
S1132ED08091160390E00497C816D906DCF5E985BD
S1132EE0FA85C601880F991FE80FF91F8081918127
S1132EF064EF71E00E94F315892B59F275014501C5
S1132F00880C991CE985FA85E80DF91D8081918169
S1132F1068E572E00E943916892B31F0C801880FE8
S1132F20991F8C0101600FC089859A85FC01E80D09
S1132F30F91D8081918164EA76E00E943916892B1B
S1132F4051F0000F111F82E0C80ED11C82E0A80EC0
S1132F50B11CBECF760181E0E81AF108F594E7943C
S1132F60F886EF828AE2E816F1040CF492CFC801E5
S1132F70110FAA0BBB0B8B839C83AD83BE8389E0AB
S1132F80888381E0DF91CF911F910F91FF90EF90A3
S1132F90DF90CF90BF90AF909F908F900895AF92A5
S1132FA0BF92CF92DF92EF92FF920F931F93CF9332
S1132FB0DF9380911603803211F080E05FC0EB0153
S1132FC0E985FA85828193816CE271E00E94F315B0
S1132FD0892B99F3E985FA85848195816EEE72E0F7
S1132FE00E943916892B49F306E010E0C12CD12C3C
S1132FF07601E985FA85E00FF11F808191816CE209
S113300071E00E94F315892BC1F2580182E0A80EE9
S1133010B11CE985FA85EA0DFB1D8081918168E088
S113302077E00E943916892B39F0CC0CDD1CEE1C9C
S1133030FF1C6894C0F812C089859A85FC01EA0DCA
S1133040FB1D808191816EEE72E00E943916892BFE
S113305009F4B3CFCC0CDD1CEE1CFF1C0C5F1F4F1E
S11330600E33110531F68EE090E098878F83CB8282
S1133070DC82ED82FE828FE0888381E0DF91CF9154
S11330801F910F91FF90EF90DF90CF90BF90AF9082
S11330900895AF92BF92CF92DF92EF92FF920F9377
S11330A01F93CF93DF93EB0180911603823251F586
S11330B0E985FA858281938168E572E00E94F315BF
S11330C0892B01F1E0911603F0E0E150F048EE0F96
S11330D0FF1F89859A85E80FF91F8081918168E532
S11330E072E00E94F315892B69F018861F828FEF16
S11330F09FEFDC018B839C83AD83BE8386E0888352
S113310081E073C0E985FA858281938160E47FE17F
S11331100E94F315892B21F080911603813210F45B
S113312080E063C0E985FA858481958160EA7FE067
S11331300E943916892BA1F338E0A32EB12C03E0A9
S113314010E0C12CD12C7601E985FA85C801880FDD
S1133150991FE80FF91F8081918168E572E00E9450
S1133160F315892BE9F2E985FA85EA0DFB1D8081C7
S1133170918160E476E00E943916892B39F0CC0CF9
S1133180DD1CEE1CFF1C6894C0F811C0E985FA85AB
S1133190EA0DFB1D8081918166E272E00E9439167E
S11331A0892B09F4BDCFCC0CDD1CEE1CFF1C0E5F7B
S11331B01F4F84E0A80EB11C0332110529F6E985DE
S11331C0FA85EA5BFF4F8081918168E572E00E9495
S11331D0F315892B09F4A4CF80E190E098878F83BD
S11331E0CB82DC82ED82FE8289CFDF91CF911F9169
S11331F00F91FF90EF90DF90CF90BF90AF90089524
S1133200AF92BF92CF92DF92EF92FF920F931F93F0
S1133210CF93DF9380911603893310F480E070C05C
S1133220EB01E985FA858281938160E47FE10E9464
S1133230F315892B99F3E985FA858481958160EAF0
S11332407FE00E943916892B49F338E0A32EB12C74
S113325003E010E0C12CD12C7601E985FA85C80180
S1133260880F991FE80FF91F8081918168E572E04A
S11332700E94F315892B91F2E985FA85EA0DFB1D6D
S11332808081918160E476E00E943916892B39F0BF
S1133290CC0CDD1CEE1CFF1C6894C0F811C0E98541
S11332A0FA85EA0DFB1D8081918166E272E00E943D
S11332B03916892B09F4B2CFCC0CDD1CEE1CFF1C93
S11332C00E5F1F4F84E0A80EB11C0B33110529F6C5
S11332D0E985FA85EA58FF4F8081918168E572E0BB
S11332E00E94F315892B09F499CF8CE190E098871B
S11332F08F83CB82DC82ED82FE828AE0888381E048
S1133300DF91CF911F910F91FF90EF90DF90CF90BD
S1133310BF90AF9008956F927F928F929F92AF92D9
S1133320BF92CF92DF92EF92FF920F931F93CF93AE
S1133330DF9380911603823208F46CC08B01DB01A9
S11333401996ED91FC911A97828193816EE571E053
S11333500E94F315892B09F45DC063E0A62EB12CFD
S1133360C2E0D0E0C12CD12C760135018091160346
S113337090E0A816B9060CF043C04E01880C991CC5
S1133380D8011996ED91FC911A97E80DF91D8081E9
S113339091816EE977E00E94F315892B39F0CC0C0A
S11333A0DD1CEE1CFF1C6894C0F812C0F801818576
S11333B09285FC01E80DF91D808191816EEE72E029
S11333C00E94F315892B31F1CC0CDD1CEE1CFF1C83
S11333D0C501880F991FD8011996ED91FC911A9790
S11333E0E80FF91F808191816EE571E00E94391622
S11333F0B2E0AB0EB11C892B11F02296B6CFE301DB
S11334002197D595C795F801D087C783609724F491
S11334101086178280E007C0C382D482E582F682D8
S11334208CE0808381E0DF91CF911F910F91FF9019
S1133430EF90DF90CF90BF90AF909F908F907F9050
S11334406F900895AF92BF92CF92DF92EF92FF9266
S11334500F931F93CF93DF93EB01E985FA85828164
S1133460938168E273E20E94F315892B11F480E0E2
S11334707CC080911603843009F5E985FA8584813E
S113348095816AEC78E00E943916892BB9F0E985B8
S1133490FA858681978160E372E00E94F315892B97
S11334A069F018861F828FEF9FEFDC018B839C836A
S11334B0AD83BE8383E0888381E057C08091160387
S11334C08434A8F2E985FA858481958164E971E1FF
S11334D00E943916892B59F206E010E0C12CD12C38
S11334E07601E985FA85E00FF11F8081918160E31F
S11334F072E00E94F315892B09F4B9CF580182E0D8
S1133500A80EB11CE985FA85EA0DFB1D8081918125
S11335106AE976E00E943916892B39F0CC0CDD1C5F
S1133520EE1CFF1C6894C0F812C089859A85FC01C2
S1133530EA0DFB1D8081918160E372E00E943916DF
S1133540892B09F494CFCC0CDD1CEE1CFF1C0C5F02
S11335501F4F0638110529F680E290E098878F8383
S1133560CB82DC82ED82FE82A5CFDF91CF911F91C9
S11335700F91FF90EF90DF90CF90BF90AF900895A0
S11335806F927F928F929F92AF92BF92CF92DF926F
S1133590EF92FF920F931F93CF93DF93EB01E98593
S11335A0FA85828193816EEA7DE00E94F315892B6E
S11335B011F480E06CC0E985FA858481958166ED1B
S11335C076E00E94F315892BA1F386E0A82EB12C96
S11335D0C12CD12CE12CF12C00E010E0612C712CD9
S11335E0E985FA85EA0DFB1D8081918166EF71E022
S11335F00E94F315892BE9F2450182E0880E911CA3
S1133600E985FA85E80DF91D808191816CED74E0FE
S11336100E943916892B49F09601A701B801C3010C
S113362001E00E94D421216015C089859A85FC019E
S1133630E80DF91D8081918160E971E00E943916DD
S1133640892B09F4B6CF9601A701B801C30101E0A3
S11336500E94D42169017A018B013C0184E0A80E07
S1133660B11C86ECA816B10409F0BACF2B833C83B5
S11336704D835E83C30100E20E94EF2129833A83D4
S113368085E0888380E390E098878F8381E0DF91F1
S1133690CF911F910F91FF90EF90DF90CF90BF904B
S11336A0AF909F908F907F906F9008958F929F928C
S11336B0AF92BF92CF92DF92EF92FF920F931F933C
S11336C0CF93DF93DA018D919C91DB011B96ED91F1
S11336D0FC911C978E179F070CF04DC0FC01EE0F58
S11336E0FF1F19966D917C911A97E60FF71FA08022
S11336F0B180817099276C01B1E0CB26892B19F434
S11337008CE99FEF02C084E690E07901EA014C0164
S1133710800E911EB401C5010E94AF15892B99F446
S1133720800E911EB401C5010E94AF15892B71F45E
S1133730B801680D791DC5010E94AF15892BF1F000
S113374023E030E005C021E030E002C022E030E0B8
S1133750F701808191810196821793071CF491836C
S1133760808307C011821082888199810196998390
S11337708883C60105C081E090E002C08FEF9FEF0F
S1133780DF91CF911F910F91FF90EF90DF90CF9039
S1133790BF90AF909F908F9008954F925F926F92D9
S11337A07F928F929F92AF92BF92CF92DF92EF92CD
S11337B0FF920F931F93CF93DF9300D000D0CDB728
S11337C0DEB71C821B8221E030E03A8329832091FA
S11337D016032D3010F480E06FC07B016C0109E703
S11337E013E09E012D5F3F4FAE014F5F5F4F0E947C
S11337F0561B892B81F79E012D5F3F4FAE014F5F12
S11338005F4FB701C6010E94561B019721F79E0125
S11338102D5F3F4FAE014F5F5F4FB701C6010E945E
S1133820561B892BC1F6412C512C3201A12CB12CF1
S11338308091160390E029813A81281739079CF575
S113384009E713E09E012D5F3F4FAE014F5F5F4FCD
S1133850B701C6010E94561B4C019E012D5F3F4FCC
S1133860AE014F5F5F4FB701C6010E94561B21E0B6
S11338708216910451F4892B09F0ADCF440C551CE8
S1133880661C771C689440F80AC0892809F0A3CF05
S1133890019709F0A0CF440C551C661C771C8FEFD0
S11338A0A81AB80AC5CFF701B086A782438254820A
S11338B06582768281E080830F900F900F900F9045
S11338C0DF91CF911F910F91FF90EF90DF90CF90F8
S11338D0BF90AF909F908F907F906F905F904F902C
S11338E008952F923F924F925F926F927F928F92A0
S11338F09F92AF92BF92CF92DF92EF92FF920F937B
S11339001F93CF93DF9300D000D0CDB7DEB71C82D6
S11339101B82DB011B962D913C911C9712161306FA
S113392014F080E0C2C07B016C01DB011996ED91BB
S1133930FC911A9782E090E09A8389838281938133
S11339406AE67AE00E94F315892B59F3D701199698
S1133950ED91FC911A9789819A819C012F5F3F4FC9
S11339603A832983880F991FE80FF91F8081918179
S113397069E773E00E943916892B99F20CEB11E088
S11339809E012D5F3F4FAE014F5F5F4FB701C601F0
S11339900E94561B892B29F69E012D5F3F4FAE01D5
S11339A04F5F5F4FB701C6010E94561B019709F094
S11339B0B8CF212C312C2101A12CB12CF701238566
S11339C0348589819A81821793070CF064C00CEBCB
S11339D011E09E012D5F3F4FAE014F5F5F4FB70176
S11339E0C6010E94561B3C01F3E0AF16B10491F0EE
S11339F00CEB11E09E012D5F3F4FAE014F5F5F4F17
S1133A00B701C6010E94561B4C0183E0A816B104FD
S1133A1009F510C00CEB11E09E012D5F3F4FAE0184
S1133A204F5F5F4FB701C6010E94561B68167906A7
S1133A30F9F277CF0CEB11E09E012D5F3F4FAE0101
S1133A404F5F5F4FB701C6010E94561B8816990647
S1133A5009F067CF6114710479F48A94892809F014
S1133A6060CFD201C101880F991FAA1FBB1F1C017F
S1133A702D01689420F80BC06A94672809F051CF8F
S1133A80892809F04ECF220C331C441C551CEFEF3F
S1133A90AE1ABE0A93CFB086A782F701238234827E
S1133AA04582568282E0808381E00F900F900F90D0
S1133AB00F90DF91CF911F910F91FF90EF90DF90C6
S1133AC0CF90BF90AF909F908F907F906F905F90BA
S1133AD04F903F902F900895AF92BF92CF92DF9274
S1133AE0EF92FF920F931F93CF93DF93EB01E9853E
S1133AF0FA858281938168E873E10E94F315892B2A
S1133B0011F480E07CC080911603843009F5E985C6
S1133B10FA85848195816AEC78E00E943916892BB4
S1133B20B9F0E985FA858681978160E372E00E94A5
S1133B30F315892B69F018861F828FEF9FEFDC0144
S1133B408B839C83AD83BE8387E0888381E057C0E9
S1133B50809116038434A8F2E985FA8584819581DD
S1133B6068E873E10E943916892B59F206E010E0E7
S1133B70C12CD12C7601E985FA85E00FF11F8081F3
S1133B80918160E372E00E94F315892B09F4B9CFA7
S1133B90580182E0A80EB11CE985FA85EA0DFB1DE7
S1133BA08081918160E476E00E943916892B39F096
S1133BB0CC0CDD1CEE1CFF1C6894C0F812C0898577
S1133BC09A85FC01EA0DFB1D8081918160E372E01E
S1133BD00E943916892B09F494CFCC0CDD1CEE1C01
S1133BE0FF1C0C5F1F4F0638110529F680E290E098
S1133BF098878F83CB82DC82ED82FE82A5CFDF9112
S1133C00CF911F910F91FF90EF90DF90CF90BF90D5
S1133C10AF9008958F929F92AF92BF92CF92DF920E
S1133C20EF92FF920F931F93CF93DF93EB01809159
S1133C3016038A3108F47DC0E985FA858081918173
S1133C408032934050F418861F828FEF9FEFDC017F
S1133C508B839C83AD83BE8372C0828193816CEA23
S1133C607DE00E94F315892B09F463C0E985FA8588
S1133C70848195816CEA7DE00E94F315892B09F417
S1133C8058C004E010E053E0A52EB12CC12CD12C77
S1133C90760148018091160390E008171907DCF5B6
S1133CA0E985FA85C501880F991FE80FF91F8081FE
S1133CB0918166EB73E00E943916892B69F1880CB7
S1133CC0991CE985FA85E80DF91D8081918160E6EA
S1133CD079E00E94F315892B39F0CC0CDD1CEE1C25
S1133CE0FF1C6894C0F811C089859A85FC01E80D11
S1133CF0F91D808191816CEB72E00E94F315892B90
S1133D00C1F0CC0CDD1CEE1CFF1C82E0A80EB11C23
S1133D100E5F1F4FBECF450121E0821A9108959492
S1133D20879498868F828CE08816910424F41886F0
S1133D301F8280E007C0CB82DC82ED82FE828BE0B2
S1133D40888381E0DF91CF911F910F91FF90EF90D5
S1133D50DF90CF90BF90AF909F908F9008958F92F7
S1133D609F92AF92BF92CF92DF92EF92FF920F9306
S1133D701F93CF93DF93EB01809116038A3108F4EC
S1133D8073C0E985FA8580819181843F914058F41C
S1133D9018861F828FEF9FEFDC018B839C83AD839A
S1133DA0BE838BE068C08281938160E679E00E94E3
S1133DB0F315892B09F458C003E010E052E0A52E56
S1133DC0B12CC12CD12C760148018091160390E0CE
S1133DD008171907DCF5E985FA85C501880F991FCD
S1133DE0E80FF91F8081918168E572E00E9439161D
S1133DF0892B69F1880C991CE985FA85E80DF91D70
S1133E008081918160EB74E00E94F315892B39F075
S1133E10CC0CDD1CEE1CFF1C6894C0F811C0898515
S1133E209A85FC01E80DF91D8081918168E572E0B5
S1133E300E94F315892BC1F0CC0CDD1CEE1CFF1C79
S1133E4082E0A80EB11C0E5F1F4FBECF450121E0DA
S1133E50821A91089594879498868F828CE08816AC
S1133E60910424F418861F8280E007C0CB82DC8290
S1133E70ED82FE8284E0888381E0DF91CF911F91FF
S1133E800F91FF90EF90DF90CF90BF90AF909F90F5
S1133E908F900895AF92BF92CF92DF92EF92FF92EC
S1133EA00F931F93CF93DF9380911603863410F4FE
S1133EB080E085C0EB01E985FA85828193816EEE0D
S1133EC072E00E94F315892B99F3E985FA858481C0
S1133ED095816EEE72E00E943916892B49F3E985CB
S1133EE0FA858681978162E27BE00E94F315892B33
S1133EF0F9F2E985FA858085918562E27BE00E948A
S1133F003916892BA9F23CE0A32EB12C05E010E070
S1133F10C12CD12C7601E985FA85C801880F991F37
S1133F20E80FF91F808191816EEE72E00E94F31513
S1133F30892B09F4BDCFE985FA85EA0DFB1D808143
S1133F40918166E678E00E943916892B39F0CC0C11
S1133F50DD1CEE1CFF1C6894C0F811C0E985FA85CD
S1133F60EA0DFB1D808191816EEE72E00E9439168C
S1133F70892B09F49DCFCC0CDD1CEE1CFF1C0E5FBD
S1133F801F4F84E0A80EB11C0534110521F6E98504
S1133F90FA85E657FF4F808191816EEE72E00E94B0
S1133FA0F315892B09F484CF80E290E098878F83FE
S1133FB0CB82DC82ED82FE8288E0888381E0DF911F
S1133FC0CF911F910F91FF90EF90DF90CF90BF9012
S1133FD0AF900895CF93DF93EC0160E08E810E944F
S1133FE0CB1281E090E00E94201261E08E810E9459
S1133FF0CB1281E090E00E94201260E08E810E944A
S1134000CB1284E690E0DF91CF910C942012CF92F2
S1134010DF92EF92FF920F931F93CF93DF936C0184
S11340207C0187E0E80EF11CC0E0D0E0062F10E030
S1134030B8010C2E02C0759567950A94E2F7617079
S1134040F70181917F010E94CB122196C430D105E2
S113405079F7C601DF91CF911F910F91FF90EF90F7
S1134060DF90CF900C94EA1FCF92DF92EF92FF92F1
S11340700F931F93CF93DF936C017C0187E0E80ECD
S1134080F11CC0E0D0E0062F10E0B8010C2E02C0F5
S1134090759567950A94E2F76170F70181917F0144
S11340A00E94CB122196C830D10579F7C601DF9161
S11340B0CF911F910F91FF90EF90DF90CF900C94D0
S11340C0EA1F1F93CF93DF93EC01162F642F8C818B
S11340D00E94CB128D818F3F19F060E00E94CB12B9
S11340E08F85612F84FF06C0CE01DF91CF911F9190
S11340F00C94342070E084E0759567958A95E1F717
S1134100CE010E940720612FCE01DF91CF911F9134
S11341100C94072040E00C94612061E00E948A2006
S113412080ED97E00C94201262E00E948A2080EDDA
S113413097E00C942012FC01443008F043E083899A
S1134140481710F04FEF480FDF01A40FB11D54962C
S11341509C91690F6068CF010C948A20FC016089EE
S1134160262F2460208B6C600C948A20EF92FF929F
S11341700F931F93CF93DF93EC01423018F08F8598
S113418088608F874B8B1C8A80E48D8B6E8B70E0EC
S1134190605C7F4F6F8B222329F0413019F48F85A7
S11341A084608F8761E08C810E948F128D818F3FA4
S11341B019F061E00E948F1261E08E810E948F12DB
S11341C07E0187E0E80EF11C00E010E08F8584FD9D
S11341D003C084E090E002C088E090E0081719076B
S11341E04CF461E0F70181917F010E948F120F5F0F
S11341F01F4FECCF80E593EC0E94201260E08C818D
S11342000E94CB1260E08E810E94CB128D818F3F81
S113421019F060E00E94CB126F8564FD1DC063E05D
S1134220CE010E94072084E991E10E94201263E0FC
S1134230CE010E94072084E991E10E94201263E0EC
S1134240CE010E94072086E990E00E94201262E0DD
S1134250CE010E94072016C06062CE010E948A200F
S113426084E991E10E9420126F856062CE010E9470
S11342708A2086E990E00E9420126F856062CE0158
S11342800E948A206F856062CE010E948A2084E0A9
S1134290888BCE010E94AE20CE010E948D2082E048
S11342A0898B66E0CE01DF91CF911F910F91FF9032
S11342B0EF900C948A20CF92EF920F93FC0113821B
S11342C0128288E192E09183808364838FEF8583F7
S11342D0468327830087E186C28613861486158663
S11342E01686178620E041E060E1CF010F91EF9040
S11342F0CF900C94B620FC0160896D7F608B686060
S11343000C948A20FC016089262F2260208B6A602D
S11343100C948A2041E00E94612081E090E008959D
S11343200895DB018F939F930E94C921BF91AF91A0
S1134330A29F800D911DA39F900DB29F900D1124FB
S11343400895A1E21A2EAA1BBB1BFD010DC0AA1FD2
S1134350BB1FEE1FFF1FA217B307E407F50720F0EA
S1134360A21BB30BE40BF50B661F771F881F991F65
S11343701A9469F760957095809590959B01AC01AE
S1134380BD01CF010895EE0FFF1F0590F491E02DBC
S113439009940E940B22A59F900DB49F900DA49F99
S11343A0800D911D112408950F93083090F0982FDB
S11343B0872F762F652F542F432F322F2227085013
S11343C0F4CF220F331F441F551F661F771F881F0A
S11343D0991F0A95B2F70F91089597FB10F8169458
S11343E000080F93083098F00850232F342F452FDE
S11343F0562F672F782F892F902DF4CF05949795FA
S113440087957795679557954795379527950A9595
S1134410AAF70F910895A29FB001B39FC001A39F73
S1134420700D811D1124911DB29F700D811D1124E9
S1134430911D08950F931F93CF93DF9382309105BD
S113444010F482E090E0E091E603F091E70320E0CD
S113445030E0A0E0B0E0309719F140815181028151
S1134460138148175907C8F08417950769F4109702
S113447031F012960C93129713961C9327C0009355
S1134480E6031093E70322C02115310519F0421702
S1134490530718F49A01BD01EF01DF01F801DBCFE6
S11344A021153105F9F0281B390B2430310580F42E
S11344B08A819B816115710521F0FB0193838283BD
S11344C004C09093E7038093E603FE01329644C050
S11344D0FE01E20FF31F8193919322503109398336
S11344E028833AC02091E4033091E503232B41F45F
S11344F020910201309103013093E5032093E403FA
S113450020910001309101012115310541F42DB7AD
S11345103EB74091040150910501241B350BE091F5
S1134520E403F091E503E217F307A0F42E1B3F0B1D
S11345302817390778F0AC014E5F5F4F2417350711
S113454048F04E0F5F1F5093E5034093E4038193BB
S1134550919302C0E0E0F0E0CF01DF91CF911F9191
S11345600F910895CF93DF93009709F481C0FC0164
S1134570329713821282A091E603B091E703109759
S113458081F420813181820F931F2091E4033091C3
S1134590E5032817390751F5F093E503E093E403A5
S11345A067C0ED0120E030E0CE17DF0740F44A8118
S11345B05B819E0141155105F1F0EA01F5CFD383EA
S11345C0C28340815181840F951FC817D90759F4BC
S11345D088819981840F951F0296918380838A81B3
S11345E09B81938382832115310529F4F093E7039A
S11345F0E093E6033DC0E901FB83EA8349915991C5
S1134600C40FD51FEC17FD0761F480819181840FDD
S1134610951F0296E90199838883828193819B8304
S11346208A83E0E0F0E012968D919C9113970097B5
S113463019F0FD01DC01F7CF8D919C9111979D013B
S11346402E5F3F4F820F931F2091E4033091E503C7
S11346502817390769F4309729F41092E703109268
S1134660E60302C013821282B093E503A093E4032D
S1134670DF91CF910895A0E0B0E0E1E4F3E20C947F
S11346801524EC01009721F4CB010E941A22B4C036
S1134690FC01E60FF71F9C0122503109E217F307D2
S11346A008F4A8C0D9010D911C911197061717079A
S11346B0B0F00530110508F49BC0C80104978617B3
S11346C0970708F495C002501109061B170B0193B4
S11346D011936D937C93CF010E94B22289C05B0138
S11346E0A01AB10A4C01800E911EA091E603B0916C
S11346F0E703612C712CE12CF12C109709F446C0CE
S11347008D919C911197A815B905B1F56C0142E002
S1134710C40ED11CCA14DB0478F14C018A189B081E
S1134720640142E0C40ED11C1296BC9012971396F9
S1134730AC91B5E0CB16D10440F0B282A383918250
S11347408082D9016D937C9309C00E5F1F4F800F47
S1134750911FF90191838083EB2DFA2FE114F10469
S113476031F0D7011396FC93EE93129741C0F09366
S1134770E703E093E6033CC06816790608F43C01BD
S11347807D0112960D90BC91A02DB7CF8091E403CA
S11347909091E50388169906E1F466167706C8F445
S11347A08091000190910101009741F48DB79EB76B
S11347B04091040150910501841B950BE817F907FA
S11347C0C8F4F093E503E093E403F9017183608393
S11347D00FC0CB010E941A227C01009759F0A80156
S11347E0BE010E940124CE010E94B222C70104C06E
S11347F0CE0102C080E090E0CDB7DEB7EEE00C94CD
S11348003124FB01DC0102C001900D924150504063
S1134810D8F70895FB01DC0101900D920020E1F727
S113482008952F923F924F925F926F927F928F9250
S11348309F92AF92BF92CF92DF92EF92FF920F932B
S11348401F93CF93DF93CDB7DEB7CA1BDB0B0FB635
S1134850F894DEBF0FBECDBF09942A8839884888F2
S11348605F846E847D848C849B84AA84B984C88488
S1134870DF80EE80FD800C811B81AA81B981CE0F7F
S1134880D11D0FB6F894DEBF0FBECDBFED01089564
S1074890F894FFCFC6
S11348940000E8032000010057617465722044722B
S11348A46F7070657200427920457468616E2047A8
S11348B472657900206973206E6F742061206E75AF
S11348C46D6265722C202E202C206F7220272027E5
S11348D4006E756D3A2000726573756C74733A20BA
S11348E40068617356616C3A200068617356616CA8
S11348F4203D20747275650053746172742063687A
S113490465636B005374617274206572726F720014
S11349144572726F7220696E2076616C75657300DE
S113492453746172742064656C617900456E64200B
S11349346572726F720056616C75652066756C6C75
S1134944210076616C203D20004469737420546115
S1134954726765743A0044726F702053697A653AD9
S1134964004E756D2044726F70733A0054696D651E
S113497420446966663A0044726F7070696E672EEB
S11349842E2E0000000000BD0E34107E0E0A0F50BF
S11349940E6A0E5C0E0D0A006E616E00696E66008E
S11349A46F766600000000008A213410910F940F82
S9030000FC
